:100000000C9464000C948C000C948C000C948C0068
:100010000C948C000C948C000C948C000C944F0E5F
:100020000C948C000C948C000C948C000C94030F9A
:100030000C948C000C948C000C948C000C948C0010
:100040000C94050E0C948C000C94D10E0C94AB0EF9
:100050000C948C000C948C000C948C000C948C00F0
:100060000C948C000C948C000000000024002700ED
:100070002A000000000023002600290000000008DC
:10008000000201000003040700000000000000005F
:1000900000000000250028002B00020404040404D2
:1000A0000404040202020202020303030303030125
:1000B00002040810204080010204081020010204FC
:1000C00008102000BF0F001711241FBECFEFD8E08B
:1000D000DEBFCDBF11E0A0E0B1E0E2EEF8E302C088
:1000E00005900D92A43FB107D9F723E0A4EFB1E04A
:1000F00001C01D92A935B207E1F710E0C3E6D0E0D8
:1001000004C02197FE010E94631AC236D107C9F7C5
:100110000E946E110C94641C0C9400008F929F92AC
:10012000AF92BF92FF920F931F93CF93DF93F09004
:10013000E3022BE02F1508F44CC02091E50208E5FE
:1001400012E0021B110927FD1395000F111F000F6C
:10015000111F2091E402C8E8D0E0C21BD10927FD9D
:10016000D395CC0FDD1FCC0FDD1F4E010D2E000CE3
:10017000AA08BB089801012E000C440B550B281946
:1001800039094A095B09DC010E946D1824EB30E053
:1001900040E050E00E944318820E931EA41EB51E3C
:1001A0008C169D062CF0E801801691060CF4E401F3
:1001B0002297CC0FDD1F2FB7F8948F2D90E0FC0114
:1001C000EE0FFF1FE80FF91FE854FD4FD283C183E4
:1001D0002FBFDF91CF911F910F91FF90BF90AF90F4
:1001E0009F908F900895CF92DF92EF92FF92CF93DE
:1001F000DF93B091ED02A0E08111AB2F8091EE0270
:1002000090E0880F991FAC014E585F4FC090F302E9
:10021000D090F402E090F502F090F60230E020E099
:10022000FA01C591D491E881B90190E080E0EB2317
:10023000EA130AC02F5F3F4F6C157D058E059F05A1
:1002400078F36FEF7FEFCB01DF91CF91FF90EF90CD
:10025000DF90CF900895833081F028F4813099F0B9
:100260008230A9F008958730A9F08830C9F0843031
:10027000B1F4809180008F7D03C0809180008F77E2
:1002800080938000089584B58F7784BD089584B5E8
:100290008F7DFBCF8091B0008F778093B000089561
:1002A0008091B0008F7DF9CFCF93DF93282F30E07E
:1002B000F901E458FF4F8491F901E155FF4FD491C2
:1002C000F901E556FF4FC491CC23A1F081110E94A2
:1002D0002B01EC2FF0E0EE0FFF1FEE58FF4FA59122
:1002E000B491EC91ED2381E090E009F480E0DF919E
:1002F000CF91089580E090E0FACF1F93CF93DF93E2
:10030000282F30E0F901E458FF4F8491F901E155BD
:10031000FF4FD491F901E556FF4FC491CC23A9F0CA
:10032000162F81110E942B01EC2FF0E0EE0FFF1F22
:10033000E057FF4FA591B4918FB7F894EC9111114C
:1003400008C0D095DE23DC938FBFDF91CF911F9142
:100350000895DE2BF8CFE1E8F0E0E491E33039F1E5
:1003600060F4E130D1F0E230E9F060E080389105EE
:100370000CF061E085E00C947D01E73011F1E8308C
:1003800041F1E43091F720918000206220938000B9
:1003900090938B0080938A00089594B5906894BDE3
:1003A00087BD089594B5906294BD88BD089520914D
:1003B00080002068209380009093890080938800BB
:1003C00008959091B00090689093B0008093B3002E
:1003D00008959091B00090629093B0008093B40023
:1003E0000895CF93DF9390E0FC01E155FF4F2491F6
:1003F00085569F4FFC0184918823D1F090E0880FAF
:10040000991FFC01E859FF4FA591B491FC01E057F9
:10041000FF4FC591D491623071F49FB7F8943C912D
:10042000822F809583238C93E8812E2B28839FBF76
:10043000DF91CF9108958FB7F894EC912E2B2C93E8
:100440008FBFF6CF8F929F92AF92BF92CF92DF92E3
:10045000EF92FF920F931F93CF938C016A017B0160
:10046000809109018E3079F08F3F09F44FC0CF9110
:100470001F910F91FF90EF90DF90CF90BF90AF90C2
:100480009F908F900895EAE9F0E0C491C7FDEFCF07
:1004900061E08EE00E94F101C1114EC0980150E070
:1004A00040E068E478EE81E090E00E944318490162
:1004B0005A0181E0881A9108A108B10885B5887FA2
:1004C000836085BDD801AA0FBB1FA70196010E94BA
:1004D000621828EE33E040E050E00E94AC18C130D2
:1004E00009F4B4C0C23009F4C3C0C111C0CF87BC85
:1004F00020931702309318024093190250931A0266
:1005000080916E00826080936E00B1CF8EE0809308
:100510000901EAE9F0E0C491CF3F09F4A8CFC13066
:1005200009F43DC018F1C23009F457C0C7FD9FCF90
:1005300061E08EE00E94F101980150E040E0C2309D
:1005400009F06DC060E970ED83E090E00E9443180F
:1005500049015A0181E0881A9108A108B1088091E7
:10056000B100887F83608093B100ACCF14BC15BC10
:1005700084B5826084BD85B5816085BDE9EAF0E01F
:10058000E491F0E0EE0FFF1FE057FF4F859194914B
:10059000EDEBF0E0E491E0930E02C0E079CF109231
:1005A000800010928100809181008860809381009A
:1005B00080918100816080938100E9EAF0E0E4911C
:1005C000F0E0EE0FFF1FE057FF4F85919491EDEBA8
:1005D000F0E0E491E0930D025BCF1092B000109236
:1005E000B1008091B00082608093B0008091B10032
:1005F00081608093B100E9EAF0E0E491F0E0EE0F71
:10060000FF1FE057FF4F8591949190930C028093C8
:100610000B02EDEBF0E0E491E0930A0239CF60E0E9
:1006200072E18AE790E00E94431849015A0181E093
:10063000881A9108A108B108C13009F043CF809110
:100640008100887F8160809381003CCF90928900F7
:100650008092880020931302309314024093150275
:100660005093160280916F00826080936F00FFCEDE
:100670008092B30020930F02309310024093110236
:100680005093120280917000826080937000EFCED0
:100690003FB7F8948091060290910702A09108025A
:1006A000B091090226B5A89B05C02F3F19F001960D
:1006B000A11DB11D3FBFBA2FA92F982F8827BC01BC
:1006C000CD01620F711D811D911D42E0660F771FE4
:1006D000881F991F4A95D1F708958F929F92AF92E4
:1006E000BF92CF92DF92EF92FF924B015C010E948A
:1006F00048036B017C010E9448036C197D098E0937
:100700009F09683E734081059105A8F321E0821A94
:100710009108A108B10888EEC80E83E0D81EE11C3C
:10072000F11C81149104A104B10429F7FF90EF900A
:10073000DF90CF90BF90AF909F908F9008952FB78C
:10074000F8946091020270910302809104029091EA
:1007500005022FBF0895CF92DF92EF92FF920F9381
:100760001F93CF93DF93CDB7DEB7C054D1400FB600
:10077000F894DEBF0FBECDBF0E949F030091EF0231
:100780001091F0022091F1023091F2026B017C0194
:10079000C01AD10AE20AF30A97018601003D174008
:1007A0002105310590F48091F702C05CDE4F0FB651
:1007B000F894DEBF0FBECDBFDF91CF911F910F9197
:1007C000FF90EF90DF90CF9008956093EF027093C9
:1007D000F0028093F1029093F2021092EA021092DA
:1007E000E9021092E8021092E7021092E60262E03B
:1007F0008091EB020E94F10161E070E080E090E006
:100800000E946D0361E08091EB020E94F10160E0C3
:100810008091EB020E947D018091EC028551823033
:1008200020F58BE291E10197F1F762E08091EB0214
:100830000E94F1018091F80290E08230910538F039
:10084000880F991F880F991F05970197F1F7F89462
:1008500080E00E94F3006F3F7F4F8F4F9F4F61F406
:100860001092F702789480E0A0CF64E170E080E01D
:1008700090E00E946D03D9CF81E00E94F3006F3FAA
:100880007F4F8F4F9F4F61F38E010F5F1F4F6E01A0
:100890002FEBC21A2EEFD20A780180E00E94F300FB
:1008A000F701608371838283938381E00E94F30068
:1008B000F7016483758386839783F8E0EF0EF11C5C
:1008C000EC14FD0451F7789430E020E0F801C0808A
:1008D000D180E280F3804481558166817781FFEF8A
:1008E000CF16DF06EF06FF0631F04F3F8FEF5807B8
:1008F0006807780719F41092F702B5CFF90183E081
:10090000F595E7958A95E1F7EA51FD4F8081880FCB
:10091000C416D506E606F70610F180832F5F3F4F19
:10092000085F1F4F2832310589F64091EA02209175
:10093000E6028091E702280F3327331F8091E802F7
:10094000280F311D8091E902820F932F911D992765
:100950004817190681F681E08093F70226CF81605F
:10096000DCCF9091090189130BC0EAE9F0E0E49132
:100970009FEF90930901E13049F028F0E23061F0F7
:1009800060E00C947D0110926E00FACF90916F00A0
:100990009D7F90936F00F4CF909170009D7F909316
:1009A000700091E09093B0009091B100987F9460B6
:1009B0009093B1001092B300E3CFAF92BF92CF9269
:1009C000DF92EF92FF920F931F93CF93DF936C010F
:1009D0007B018B01040F151FEB015E01AE18BF08F0
:1009E000C017D10759F06991D601ED91FC910190A2
:1009F000F081E02DC6010995892B79F7C501DF91BA
:100A0000CF911F910F91FF90EF90DF90CF90BF900B
:100A1000AF900895FC01538D448D252F30E0842F35
:100A200090E0821B930B541710F0CF960895019716
:100A30000895FC01918D828D981761F0A28DAE0F03
:100A4000BF2FB11D5D968C91928D9F5F9F73928F8A
:100A500090E008958FEF9FEF0895FC01918D828DB6
:100A6000981731F0828DE80FF11D858D90E0089583
:100A70008FEF9FEF0895FC01918D228D892F90E0DB
:100A8000805C9F4F821B91098F73992708958BE19A
:100A900092E00E943B0521E0892B09F420E0822F9F
:100AA000089580E090E0892B29F00E94470581118C
:100AB0000C9400000895FC01A48DA80FB92FB11D5E
:100AC000A35ABF4F2C91848D90E001968F73992784
:100AD000848FA689B7892C93A089B1898C91837062
:100AE00080648C93938D848D981306C00288F3895B
:100AF000E02D80818F7D80830895EF92FF920F9388
:100B00001F93CF93DF93EC0181E0888F9B8D8C8DB9
:100B100098131AC0E889F989808185FF15C09FB7AD
:100B2000F894EE89FF896083E889F9898081837070
:100B3000806480839FBF81E090E0DF91CF911F911F
:100B40000F91FF90EF900895F62E0B8D10E00F5F40
:100B50001F4F0F731127E02E8C8D8E110CC00FB616
:100B600007FCFACFE889F989808185FFF5CFCE01AE
:100B70000E945B05F1CFEB8DEC0FFD2FF11DE35AC9
:100B8000FF4FF0829FB7F8940B8FEA89FB89808131
:100B90008062CFCFCF93DF93EC01888D8823B9F0AB
:100BA000AA89BB89E889F9898C9185FD03C0808178
:100BB00086FD0DC00FB607FCF7CF8C9185FFF2CFF5
:100BC000808185FFEDCFCE010E945B05E9CFDF91EB
:100BD000CF910895089590E080E00895CF93DF933A
:100BE000FC012781222359F1EC0161E080850E94FC
:100BF000F10161E089850E94F1018F81843011F05B
:100C00008830B1F461E08A850E94F10161E08B8552
:100C10000E94F1018FA58F3F91F061E00E94F101E8
:100C20006EA581E068278FA5DF91CF910C947D019F
:100C3000833011F0863071F761E08A85E9CFDF916A
:100C4000CF910895CF93DF93FC0127812223A9F050
:100C5000EC010190F081E02D0284F385E02D60E04D
:100C600009958FA58F3F49F061E00E94F1016EA5C3
:100C70008FA5DF91CF910C947D01DF91CF910895E5
:100C8000DC01ED91FC91228533854770552766275D
:100C900077274150510961097109473051056105B4
:100CA000710560F4FA01E95AF94F0C94631A610670
:100CB00063066506670669066B066D0661E0F90165
:100CC000099465E0FCCF64E0FACF66E0F8CF62E01B
:100CD000F6CF6AE0F4CF68E0F2CF69E0F0CFCF93CF
:100CE000DF93EC01CB01BA0126E030E040E050E0B8
:100CF0000E944318623071058105910589F16CF4F9
:100D00006115710581059105D1F06130710581058D
:100D10009105F9F0DF91CF91089564307105810557
:100D2000910561F124F1653071058105910591F717
:100D3000E881F9810284F385E02D66E006C0E88150
:100D4000F9810284F385E02D64E0CE01DF91CF913B
:100D50000994E881F9810284F385E02D65E0F5CFFF
:100D6000E881F9810284F385E02D61E0EECFE8812E
:100D7000F9810284F385E02D63E0E7CFE881F98112
:100D80000284F385E02D62E0E0CFDC01ED91FC917F
:100D90000284F385E02D437055276627772742307C
:100DA00051056105710571F043305105610571050B
:100DB00059F0413051056105710511F065E0099464
:100DC00066E0FDCF6AE0FBCF69E0F9CFCF93DF9318
:100DD000EC01CB01BA0123E030E040E050E00E949A
:100DE0004318613071058105910599F062307105F4
:100DF00081059105A9F0672B682B692BC1F4E88167
:100E0000F9810284F385E02D64E0CE01DF91CF917A
:100E10000994E881F9810284F385E02D61E0F5CF42
:100E2000E881F9810284F385E02D62E0EECFDF9165
:100E3000CF910895DC01ED91FC910284F385E02DC2
:100E400043705527662777274230510561057105A4
:100E500071F0433051056105710559F0413051057C
:100E60006105710511F062E0099463E0FDCF61E076
:100E7000FBCF60E0F9CFCF93DF93EC01E881F981FC
:100E80000284F385E02D8A8160E0811162E0CE0169
:100E90000995E881F9810284F385E02D8A8161E07A
:100EA000811163E0CE0109958CA59DA58230910545
:100EB00038F0880F991F880F991F05970197F1F750
:100EC000E881F9810284F385E02D8A8160E0811157
:100ED00062E0CE01DF91CF910994CF93DF93EC01D3
:100EE00020E030E0A901688D798D8A8D9B8D0E946C
:100EF000F21918162CF4E8A9F9A9DF91CF910994F9
:100F0000EAA9FBA9FACFCF92DF92EF92FF920F935B
:100F10001F93CF93DF93DC011796CC91C43039F047
:100F2000C83059F1C33019F0C63049F1C2E08C0124
:100F3000085F1F4FF12CE12CC62ED12CD1E0F80117
:100F40006481C6010E2C02C0959587950A94E2F73C
:100F500080FD6D270F5F1F4F80810E947D01BFEFD5
:100F6000EB1AFB0AEC1658F3DF91CF911F910F910A
:100F7000FF90EF90DF90CF900895C4E0D8CFC3E00A
:100F8000D6CFDC011796EC911797E93008F038C0FE
:100F9000F0E0E353F84F0C94631AD607DC07E2073E
:100FA000E807EE070008F4070008FA07ED91FC9146
:100FB0000684F785E02D0994ED91FC910088F18974
:100FC000E02DF9CFED91FC910288F389E02DF3CF6C
:100FD000ED91FC910488F589E02DEDCFED91FC9128
:100FE0000688F789E02DE7CFED91FC91008CF18D1B
:100FF000E02DE1CFED91FC91028CF38DE02DDBCF64
:1010000008954F925F926F927F928F929F92AF92CC
:10101000BF92CF92DF92EF92FF920F931F93CF93E5
:10102000DF93EC01CC88DD88EE88FF888889998978
:10103000AA89BB89C81AD90AEA0AFB0A688D798D80
:101040008A8D9B8D9B01AC010E946F174B015C0147
:1010500068A179A18AA19BA19B01AC010E94DE1825
:101060009B01AC01C501B4010E944A190E94BC1940
:10107000C114D104E104F10409F0B6C06230710575
:10108000810591050CF0D0C01B821C821D821E823E
:10109000188E198E1A8E1B8E1CAA1DAA1EAA1FAA94
:1010A000C12CD12C7601C701B601DF91CF911F91E0
:1010B0000F91FF90EF90DF90CF90BF90AF909F90F7
:1010C0008F907F906F905F904F900895101611064B
:1010D00012061306B4F46C157D058E059F051CF4ED
:1010E0002A812111A1C09B01AC0188279927DC012D
:1010F000821B930BA40BB50B8CAB9DABAEABBFAB04
:1011000093C0011511052105310509F48DC06C1539
:101110007D058E059F050CF087C08A81882309F420
:1011200083C030952095109501951F4F2F4F3F4F4D
:101130000CAB1DAB2EAB3FAB77C0011511052105E4
:10114000310509F471C08824992454018C189D0834
:10115000AE08BF08681579058A059B050CF064C0C8
:101160008A81811161C0DDCFCCACDDACEEACFFACCF
:10117000A7019601C701B6010E94DE182B013C01B0
:10118000C501B4010E94101720E030E040E850E4AF
:101190000E946F1720E030E040E85FE30E94DE1815
:1011A0009B01AC01C301B2010E944A199B01AC0131
:1011B000C701B6010E94DD183B016C01FE01E05C35
:1011C000FF4FE080F180028113819701A8010E9406
:1011D000F219181614F473018601C701D8018CAFF7
:1011E0009DAFAEAFBFAF3AC00CA91DA92EA93FA9B4
:1011F0001C141D041E041F040CF468CF10161106E5
:10120000120613060CF099CF0027112798010C192C
:101210001D092E093F0960177107820793070CF01B
:1012200062CF2A8121115FCF8CA89DA8AEA8BFA84C
:1012300081149104A104B10409F096CF88AD99AD51
:10124000AAADBBAD8CAF9DAFAEAFBFAF81E01C14FC
:101250001D041E041F040CF080E08A833FEF831AF4
:10126000930AA30AB30A8CAA9DAAAEAABFAA8CAC01
:101270009DACAEACBFACC501B4010E94C3196B01FB
:101280007C01CB82DC82ED82FE82A501940160E0CC
:1012900074E284E799E40E944A19688F798F8A8FF3
:1012A0009B8F2A812111FFCE9058688F798F8A8F6A
:1012B0009B8FF9CECF92DF92EF92FF92CF93DF9385
:1012C000C9EFD2E0688D798D8A8D9B8D9B01AC0131
:1012D0000E946F176B017C0168A179A18AA19BA173
:1012E0009B01AC010E94DE189B01AC01C701B60155
:1012F0000E944A190E94BC196CAB7DAB8EAB9FABB0
:10130000CE01DF91CF91FF90EF90DF90CF900C94C2
:101310000108089544EF51E060E070E088EE93E04A
:101320000E94220264EF71E080E090E00E946D0371
:101330008EE00C94B104CF93DF93EC0160E08E81DA
:101340000E947D0161E08E810E947D0160E08E81BE
:101350000E947D018BE891E00197F1F7DF91CF9139
:101360000895CF92DF92EF92FF920F931F93CF9346
:10137000DF936C017C0187E0E80EF11CD0E0C0E057
:10138000062F10E0B8010C2E02C0759567950A94DF
:10139000E2F76170F70181917F010E947D01219642
:1013A000C430D10579F7C601DF91CF911F910F911C
:1013B000FF90EF90DF90CF900C949B09CF92DF923B
:1013C000EF92FF920F931F93CF93DF93EC01F62ED2
:1013D000642F8C810E947D018D818F3F19F060E028
:1013E0000E947D010F2D10E08F8584FF25C06E01C6
:1013F00087E0C80ED11CF12CE12CB8010E2C02C0E4
:10140000759567950A94E2F76170F60181916F0115
:101410000E947D01FFEFEF1AFF0A88E0E816F10451
:1014200061F7CE01DF91CF911F910F91FF90EF9067
:10143000DF90CF900C949B09B80184E07595679577
:101440008A95E1F7CE010E94B1096F2DCE01DF919F
:10145000CF911F910F91FF90EF90DF90CF900C9460
:10146000B10940E0682F8DE393E00C94DE0981E040
:101470000E94310A8BE39FE10197F1F70895CF9322
:10148000DF93823029F490914C03986090934C0341
:10149000809350031092510380E48093520380E1C3
:1014A0008093530380E58093540361E0809141036E
:1014B0000E94F101809142038F3F19F061E00E9488
:1014C000F10161E0809143030E94F101CDE3D3E09B
:1014D0009E012D53334080914C0384FD0BC084E06A
:1014E00090E021962817390744F461E08E810E942C
:1014F000F101EECF88E090E0F4CF8BE39DE001971F
:10150000F1F760E0809141030E947D0160E08091ED
:1015100043030E947D01809142038F3F19F060E0F8
:101520000E947D0180914C0384FD34C063E08DE313
:1015300093E00E94B109CBE4D6E4CE010197F1F724
:1015400063E08DE393E00E94B1092197F1F763E036
:101550008DE393E00E94B10983E592E00197F1F7F2
:1015600062E08DE393E00E94B10980914C038062B8
:101570000E94310A84E080934D038CE00E94310A7E
:101580000E94370A82E080934E0386E0DF91CF917C
:101590000C94310A80620E94310A8BE496E4019730
:1015A000F1F780914C0380620E94310A83E592E05A
:1015B0000197F1F780914C0380620E94310AD5CFE8
:1015C00041E00E94DE0981E090E00895FB01019076
:1015D0000020E9F73197AF01461B570BDC01ED9175
:1015E000FC910280F381E02D09948F929F92AF923B
:1015F000BF92EF92FF920F931F93CF93DF93CDB7DC
:10160000DEB7A1970FB6F894DEBF0FBECDBF7C0149
:10161000FA01CB0119A2223008F42AE08E010F5DF5
:101620001F4F822E912CB12CA12CBF01A50194013A
:101630000E94AC18F901CA016A300CF5605DD8014E
:101640006E938D01232B242B252B79F790E080E0DE
:10165000109721F0BD01C7010E94E60AA1960FB6BE
:10166000F894DEBF0FBECDBFDF91CF911F910F91D8
:10167000FF90EF90BF90AF909F908F900895695C1E
:10168000DECFCF92DF92EF92FF926C01990FEE08BE
:10169000FF08F7FE18C041E06DE28DE393E00E9481
:1016A000DE0944275527BA014C195D096E097F09E7
:1016B0002AE08DE393E00E94F50A0196FF90EF90F7
:1016C000DF90CF9008952AE0B701A6018DE393E063
:1016D000FF90EF90DF90CF900C94F50A2F923F92FD
:1016E0004F925F926F927F928F929F92AF92BF9232
:1016F000CF92DF92EF92FF921F93CF93DF93EC0193
:101700006A017B01722EAB019601CB01B6010E94EA
:101710003D1A6EE471E0811126C046015701E8943C
:10172000B7F82FEF3FEF4FE75FE7C501B4010E9425
:101730003D1A81110CC02FEF3FEF4FE75FE7C50166
:10174000B4010E94091762E571E0181664F02FEFEA
:101750003FEF4FE75FE4C701B6010E94F219181688
:10176000B4F466E571E0CE01DF91CF911F91FF9057
:10177000EF90DF90CF90BF90AF909F908F907F9031
:101780006F905F904F903F902F900C94E60A2FEF50
:101790003FEF4FE75FECC701B6010E94091787FDD5
:1017A000E0CF20E030E0A901C701B6010E9409178F
:1017B000312C212C87FF0DC0E881F9810190F08147
:1017C000E02D6DE2CE0109951C01F7FAF094F7F8CF
:1017D000F09410E060E070E080E09FE3711641F06B
:1017E00020E030E040E251E40E944A191F5FF6CF4A
:1017F000A70196010E94DE182B013C010E94C3192B
:101800004B015C012AE0BC01A401CE010E94F50A53
:101810007C01E20CF31C1123E1F1C501B4010E942B
:101820000E179B01AC01C301B2010E94DD184B01F0
:101830005C01E881F9810190F081E02D6EE2CE013A
:101840000995E80EF91E115020F120E030E040E249
:1018500051E4C501B4010E946F172B013C010E94A5
:10186000C3194B01B12CA12C2AE0B501A401CE0172
:101870000E94F50AE80EF91EC501B4010E940E1778
:101880009B01AC01C301B2010E94DD184B015C0158
:10189000DACFC701DF91CF911F91FF90EF90DF90DA
:1018A000CF90BF90AF909F908F907F906F905F9000
:1018B0004F903F902F9008950C94E60A0F931F933A
:1018C0000E949F030091F4011091F5012091F6010F
:1018D0003091F701601B710B820B930B683B7B40CF
:1018E0008105910508F460C00E949F036093F40194
:1018F0007093F5018093F6019093F70180910001B8
:10190000882321F00E94370A109200016AE571E0F5
:101910008DE393E00E945C0C81E090E00E94410B1B
:1019200061E671E08DE393E00E945C0C8091070119
:10193000909108010E94410BE0915003E23008F0C1
:101940004EC0E150F0E0E35CFC4F848980680E9467
:10195000310A63E671E08DE393E00E945C0C4091F4
:10196000030150910401609105017091060121E08D
:101970008DE393E00E946E0B69E671E08DE393E0E6
:101980000E945C0C6DE671E08DE393E00E945C0CBC
:1019900080910101909102010E94410B63E771E087
:1019A0008DE393E00E945C0C0E949F030091F40180
:1019B0001091F5012091F6013091F701601B710B38
:1019C000820B930B683B7B408105910528F00E94B8
:1019D000370A81E0809300011F910F910895E1E0A3
:1019E000B1CF0C94051BCF93DF93EC018091DD0206
:1019F0009091DE02009759F02091DF023091E002D1
:101A00002C173D0720F081E0DF91CF910895BE01B2
:101A10006F5F7F4F0E948E1B009789F09093DE02CC
:101A20008093DD02D093E002C093DF022091E102B7
:101A30003091E202232B39F7FC011082E4CF80E0E1
:101A4000E3CF0F931F93CF93DF938C01EC010990A9
:101A50000020E9F72197C81BD90BCE010E94F30C97
:101A60002091DD023091DE02811117C02115310570
:101A700019F0C9010E94051B1092DE021092DD02CE
:101A80001092E2021092E1021092E0021092DF0244
:101A9000DF91CF911F910F910895D093E202C093EF
:101AA000E102B801C901DF91CF911F910F910C9410
:101AB0005D1C4F925F926F927F928F929F92AF9236
:101AC000BF92CF92DF92EF92FF926B017C0120E0F8
:101AD00030E0A9010E94091787FF04C0F7FAF094CB
:101AE000F7F8F0948090190390901A03A0901B03CC
:101AF000B0901C03A7019601C501B4010E9409170B
:101B0000882309F458C060912D0370912E038091B1
:101B10002F03909130030E9410172B013C01A70165
:101B20009601C501B4010E944A199B01AC01C30191
:101B3000B2010E946F170E94BC1960932D0370932D
:101B40002E0380932F0390933003A701960160E04A
:101B500070E080E090E40E944A190E94FD1926E599
:101B60003EE04DE25FE30E946F1720E034E244E77D
:101B700059E40E946F17609331037093320380938E
:101B8000330390933403C0921903D0921A03E09266
:101B90001B03F0921C0389EF92E0FF90EF90DF901F
:101BA000CF90BF90AF909F908F907F906F905F90FD
:101BB0004F900C940108FF90EF90DF90CF90BF9072
:101BC000AF909F908F907F906F905F904F9008950F
:101BD0002091E1023091E202232B39F421E0FC0153
:101BE0008081882361F020E00AC0BC018091DD0281
:101BF0009091DE020E94541C21E0892BA1F7822FD4
:101C000008950C9435180C942D181F920F920FB64E
:101C10000F9211242F933F938F939F93AF93BF9372
:101C20008091020290910302A0910402B0910502FA
:101C30003091010223E0230F2D3758F50196A11DA5
:101C4000B11D209301028093020290930302A0939E
:101C50000402B09305028091060290910702A091C0
:101C60000802B09109020196A11DB11D80930602E0
:101C700090930702A0930802B0930902BF91AF911D
:101C80009F918F913F912F910F900FBE0F901F90BA
:101C9000189526E8230F0296A11DB11DD2CF1F92E1
:101CA0000F920FB60F9211242F933F934F935F9390
:101CB0006F937F938F939F93AF93BF93EF93FF9314
:101CC00080910F0290911002A0911102B091120226
:101CD000892B8A2B8B2BD1F190910A02E0910B0278
:101CE000F0910C0280818927808380910F0290916E
:101CF0001002A0911102B0911202181619061A06CC
:101D00001B069CF480910F0290911002A091110289
:101D1000B09112020197A109B10980930F0290932B
:101D20001002A0931102B0931202FF91EF91BF91A4
:101D3000AF919F918F917F916F915F914F913F9163
:101D40002F910F900FBE0F901F9018958091090151
:101D50000E94B104EACF1F920F920FB60F92112486
:101D60002F933F934F935F936F937F938F939F93A3
:101D7000AF93BF93EF93FF938BE192E00E945B05DB
:101D8000FF91EF91BF91AF919F918F917F916F9153
:101D90005F914F913F912F910F900FBE0F901F9029
:101DA00018951F920F920FB60F9211242F938F93B5
:101DB0009F93EF93FF93E0912B02F0912C0280818F
:101DC000E0913102F091320282FD1BC0908180913E
:101DD00034028F5F8F7320913502821741F0E091BA
:101DE0003402F0E0E55EFD4F958F80933402FF9161
:101DF000EF919F918F912F910F900FBE0F901F9099
:101E000018958081F4CF1F920F920FB60F92112474
:101E10002F933F934F935F936F937F938F939F93F2
:101E2000AF93BF93CF93DF93EF93FF938091F8012C
:101E3000C091DC02D0E087FF24C010928500109290
:101E400084008091F8018F5F8093F8018091F80100
:101E5000082E000C990B8C179D0724F48091F80133
:101E60008C30C4F180918400909185000496803478
:101E70009C4908F47AC08091840090918500049672
:101E800076C08091F801082E000C990B8C179D07E5
:101E9000C4F6E091F8018E2FEE0F990BFC01EE0FC6
:101EA000FF1FE80FF91FE854FD4F808186FFC9CF5F
:101EB000E091F8018E2FEE0F990BFC01EE0FFF1F42
:101EC000E80FF91FE854FD4F808160E08F730E9496
:101ED0007D01B7CF2091840030918500E091F80119
:101EE0008E2FEE0F990BFC01EE0FFF1FE80FF91F6D
:101EF000E854FD4F81819281820F931F9093890056
:101F000080938800E091F8018E2FEE0F990BFC0171
:101F1000EE0FFF1FE80FF91FE854FD4F808186FF89
:101F200011C0E091F8018E2FEE0F990BFC01EE0F1E
:101F3000FF1FE80FF91FE854FD4F808161E08F73A8
:101F40000E947D01FF91EF91DF91CF91BF91AF9101
:101F50009F918F917F916F915F914F913F912F91C1
:101F60000F900FBE0F901F90189580E49CE99093FE
:101F70008900809388008FEF8093F801E3CFCF92A0
:101F8000DF92EF92FF92CF9310921E0210921D02E9
:101F900088EE93E0A0E0B0E080931F0290932002CF
:101FA000A0932102B093220284E191E090931C025D
:101FB00080931B0285EC90E0909328028093270287
:101FC00084EC90E090932A028093290280EC90E0C8
:101FD00090932C0280932B0281EC90E090932E0240
:101FE00080932D0282EC90E09093300280932F0238
:101FF00086EC90E09093320280933102109234028A
:10200000109235021092360210923702109240035D
:1020100010923F0386E491E090933E0380933D034A
:1020200088E080934103CFEFC093420389E080931F
:1020300043038AE0809344038BE0809345038CE064
:10204000809346038DE080934703109248031092DB
:10205000490310924A0310924B0310924C0381E003
:102060000E943F0A86E291E09093FA028093F9027F
:1020700084E0809300031092090310920A031092E7
:102080000B0310920C0310920D0310920E0310928A
:102090000F0310921003109211031092120310926A
:1020A000130310921403109215031092160310924A
:1020B0001703109218031092190310921A0310922A
:1020C0001B0310921C03C12CD12C30E8E32E3FE3FC
:1020D000F32EC0921D03D0921E03E0921F03F092D4
:1020E00020031092FC021092FD021092FE02109248
:1020F000FF0281E090E09093260380932503C09334
:1021000028031092210310922203109223031092AD
:1021100024031092010382E08093020381E0809304
:10212000030383E0809304031092270310922D038E
:1021300010922E0310922F0310923003109231034D
:10214000109232031092330310923403109235032D
:10215000109236031092370310923803C09239035D
:10216000D0923A03E0923B03F0923C031092FB02C0
:1021700010920503109206031092070310920803B1
:1021800089EF92E00E94EE05C701B6010E94590D49
:10219000A7019601609115037091160380911703B2
:1021A000909118030E940917882319F1C092150312
:1021B000D0921603E0921703F092180380E094E2A5
:1021C000A4E7B9E48093390390933A03A0933B03C7
:1021D000B0933C0380912D0390912E03A0912F0387
:1021E000B0913003181619061A061B0614F40E9443
:1021F0005A0984E08093EB028BE08093EC02E3EBDE
:10220000F0E0E491E093ED02EFE9F0E0E491E09397
:10221000EE0280E89EE3A0E0B0E08093F3029093AA
:10222000F402A093F502B093F6028091DC028C30A8
:1022300008F040C091E0980F9093DC028093E30295
:1022400090E0FC01EE0FFF1FE80FF91FE854FD4F6F
:1022500088EB9BE0928381831092DE021092DD0274
:102260001092E0021092DF021092E2021092E1025C
:1022700083E090E00E94F30C2091DD023091DE02B9
:1022800081111CC02115310519F0C9010E94051BDF
:102290001092DE021092DD021092E2021092E10230
:1022A0001092E0021092DF02CF91FF90EF90DF904A
:1022B000CF9008958FEF8093E302CECF83E090E03C
:1022C0009093E2028093E10266E771E0C901CF9149
:1022D000FF90EF90DF90CF900C945D1C789484B5C4
:1022E000826084BD84B5816084BD85B5826085BD12
:1022F00085B5816085BD80916E00816080936E00A0
:102300001092810080918100826080938100809191
:102310008100816080938100809180008160809342
:1023200080008091B10084608093B1008091B00002
:1023300081608093B00080917A00846080937A00FD
:1023400080917A00826080937A0080917A00816027
:1023500080937A0080917A00806880937A0010924E
:10236000C100E0912B02F0912C0282E08083E09189
:102370002702F09128021082E0912902F0912A02AE
:102380008FEC808310923302E0912F02F0913002A3
:1023900086E08083E0912D02F0912E0280818061A1
:1023A0008083E0912D02F0912E02808188608083ED
:1023B000E0912D02F0912E02808180688083E0916F
:1023C0002D02F0912E0280818F7D808362E08091CA
:1023D000EB020E94F1010E949F03605D774081093A
:1023E00091096093EF027093F0028093F102909351
:1023F000F20287E38093F80290E080E00E94030EEF
:10240000C82F81E090E00E94030E982F8C2F092E98
:10241000000CAA0BBB0B8093F9019093FA01A093D7
:10242000FB01B093FC018093090390930A03A093EE
:102430000B03B0930C0380930D0390930E03A093B2
:102440000F03B093100310922D0310922E031092DD
:102450002F03109230031092FC021092FD02109292
:10246000FE021092FF0210921103109212031092BA
:1024700013031092140320E030E04AEF54E460911B
:1024800015037091160380911703909118030E9411
:1024900009178823C1F080E090E0AAEFB4E48093AC
:1024A000150390931603A0931703B093180380E0CD
:1024B00090E0AAEFB3E48093390390933A03A0939A
:1024C0003B03B0933C0360E070E088EC92E40E9430
:1024D000590D82E00E943F0A61E08FE00E94F10105
:1024E00061E085E00E94F1018091E3028C3008F008
:1024F00051C061E086E00E94F1018091E302282F43
:1025000030E0F901EE0FFF1FE20FF31FE854FD4F1B
:102510009081907C966090831092E4021092E50284
:102520002CE0622F0E94571A829FB001112430E0E4
:1025300020E0AB01420F531FFA01EE0FFF1FE40F23
:10254000F51FE854FD4F908196FD16C02F5F3F4F59
:102550002C30310571F781110FC01092800082E09C
:10256000809381001092850010928400B19A80912E
:102570006F00826080936F00E091E3028E2F90E005
:10258000FC01EE0FFF1FE80FF91FE854FD4F80819B
:102590008064808361E08EE00E94F10162E080E16E
:1025A0000E94F10162E081E10E94F10162E082E1BA
:1025B0000E94F101412C512CF6E16F2EF2E47F2EA6
:1025C000A6E42A2E312C09E310E08091F9019091C4
:1025D000FA01A091FB01B091FC01985EAF4FBF4F93
:1025E00040910D0350910E0360910F037091100301
:1025F00084179507A607B70761F080930D039093A2
:102600000E03A0930F03B093100389EF92E00E9492
:1026100001088091FC029091FD02A091FE02B09110
:10262000FF02892B8A2B8B2B09F44FC00E94480391
:102630006B017C018091210390912203A0912303DF
:10264000B0912403B701A601481B590B6A0B7B0B01
:102650008091FC029091FD02A091FE02B091FF02D8
:10266000481759076A077B0780F180910903909109
:102670000A03A0910B03B0910C032091FB022223CB
:1026800009F4F0C00196A11DB11D80930903909338
:102690000A03A0930B03B0930C03409109035091DC
:1026A0000A0360910B0370910C0389EF92E00E9482
:1026B000C107C0922103D0922203E0922303F0923B
:1026C000240389EF92E00E94010820E030E0A90194
:1026D0006091110370911203809113039091140380
:1026E0000E940917811195CF60910D0370910E031F
:1026F00080910F0390911003C0900903D0900A03BA
:10270000E0900B03F0900C036C157D058E059F0582
:1027100009F07FCF6093F9017093FA018093FB0178
:102720009093FC0190E080E00E94010E6091F9011D
:102730007091FA018091FB019091FC01672F782F35
:10274000892F992787FD9A9581E090E00E94010EDC
:102750006091F9017091FA018091FB019091FC0167
:10276000BC01992777FD9095892F82E090E00E9427
:10277000010E6091F9017091FA018091FB01909135
:10278000FC01692F77278827992783E090E00E9432
:10279000010E67EF7BE580E090E00E946D030E94F0
:1027A0009F036B017C016F2D77278827992784E091
:1027B00090E00E94010EB7018827992785E090E0FC
:1027C0000E94010E99278F2D7E2D6D2D86E090E0C1
:1027D0000E94010E6C2D87E090E00E94010E86E0C1
:1027E00090E00E94030EC82F87E090E00E94030E45
:1027F0007C2F682F072E000C880B990B6115710533
:102800008105910541F06093FD017093FE01809375
:10281000FF0190930002C090FD01D090FE01E09076
:10282000FF01F09000026C197D098E099F0920E0DC
:102830003CE540E050E00E94AC18E90121960E947E
:10284000AB03882341F08091EC028C3009F467C01F
:1028500068F48B3021F1C12CD12C90ECE92E9FE74C
:10286000F92E47C00197A109B1090FCF85518230D8
:1028700090F7B090E8026B2D70E0762F6627662700
:102880007F778091E902682B90E080E00E940E172C
:102890002DEC3CEC4CEC5DE30E946F175CC060914A
:1028A000E80270E090E080E00E940E176B017C016E
:1028B000B090E902B7FE0AC0AC019B0160E070E095
:1028C00080E89FEB0E94DD186B017C016B2D6F701F
:1028D00070E090E080E00E9410172DEC3CEC4CEC96
:1028E0005DE30E946F17A70196010E94DE186B013D
:1028F0007C010E94AB03882309F464C08091EC0240
:102900008B3030F08D3080F18551823008F47BC0FF
:10291000812C912C80ECA82E8FE7B82E43C0B0906C
:10292000E8026B2D70E090E080E00E940E176B01D2
:102930007C016091E9026F7070E090E080E00E949D
:1029400010172DEC3CEC4CEC5DE30E946F17A701D7
:1029500096010E94DE186B017C01B7FECACFF7FA20
:10296000F094F7F8F094C5CF6091E70270E090E042
:1029700080E00E9410172DEC3CEC4CEC5DE30E94D3
:102980006F174B015C016091E60270E090E080E01F
:102990000E9410179B01AC01C501B4010E94DE1812
:1029A0004B015C01A7019601C701B6010E943D1AC7
:1029B000811108C0A5019401C501B4010E943D1A0E
:1029C000882399F16AE771E08BE192E00E94E60AC0
:1029D0006AE971E08BE192E00E94E60A0E94370A00
:1029E0006DE971E08DE393E00E945C0C80E090E083
:1029F000892B09F4EACD0E944705882309F4E5CD27
:102A00000E940000E2CD6091E6027091E702762715
:102A10006727762790E080E00E940E172DEC3CECB3
:102A20004CEC5DE30E946F17BBCF6BEA71E08BE16A
:102A300092E00E945C0C22E0B701A6018BE192E0DB
:102A40000E946E0B69EB71E08BE192E00E945C0CDE
:102A500022E0B501A4018BE192E00E946E0B63E7D6
:102A600071E08BE192E00E94E60A6AE971E08BE195
:102A700092E00E94E60A0E94370A6AE571E08DE35F
:102A800093E00E945C0CCE010E94410B61E671E074
:102A90008DE393E00E945C0C809107019091080106
:102AA0000E94410BE0915003E23008F0A5C0E150D4
:102AB000F0E0E35CFC4F848980680E94310A6AEC94
:102AC00071E08DE393E00E945C0C21E0B701A60168
:102AD0008DE393E00E946E0B69E671E08DE393E075
:102AE0000E945C0C61ED71E08DE393E00E945C0C50
:102AF00021E0B501A4018DE393E00E946E0B63E732
:102B000071E08DE393E00E945C0CA7019601609157
:102B100003017091040180910501909106010E94CA
:102B2000F21961E087FD60E08FE00E947D01609115
:102B3000010170910201072E000C880B990B0E9475
:102B40001017A50194010E94F21961E087FD56C09B
:102B500085E00E94F10188EC90E00E94AB018AE5DB
:102B600090E00E948E0020E030E040E252E4C70195
:102B7000B6010E94F21987FF0E948A0920E030E026
:102B80004CE852E4C501B4010E94F21987FD11C05E
:102B900048EE53E060E070E080ED97E00E94220292
:102BA00064EF71E080E090E00E946D038EE00E948F
:102BB000B10480E10E945401892BE1F562E370E0E9
:102BC00080E090E00E946D0386E791E00E94E80DAE
:102BD0008823F1F089ED91E00E94210D0E945E0CA6
:102BE00080E10E945401892B29F562E370E080E0C6
:102BF00090E00E946D03F4CFE1E05ACF85E00E949F
:102C0000F10182E390E00E94AB0190E080E0A9CF67
:102C100089ED91E00E94E80D882319F08EED91E096
:102C2000DBCF8EED91E00E94E80D8823B9F286E7B4
:102C300091E0D2CF81E10E945401892B09F050C06C
:102C400062E370E080E090E00E946D0386E791E02F
:102C50000E94E80D8823B9F0809107019091080146
:102C6000019690930801809307010E945E0C81E118
:102C70000E945401892BA1F562E370E080E090E0AE
:102C80000E946D03F4CF89ED91E00E94E80D882346
:102C9000B9F02DEC3CEC4CEC5DE3609103017091DC
:102CA000040180910501909106010E94DE18609355
:102CB0000301709304018093050190930601D5CF21
:102CC0008EED91E00E94E80D882379F28091010158
:102CD0009091020101969093020180930101C5CF6A
:102CE00082E10E945401892B09F050C062E370E038
:102CF00080E090E00E946D0386E791E00E94E80D7D
:102D00008823B9F080910701909108010197909371
:102D10000801809307010E945E0C82E10E94540129
:102D2000892BA1F562E370E080E090E00E946D03E2
:102D3000F4CF89ED91E00E94E80D8823B9F02DECE5
:102D40003CEC4CEC5DE360910301709104018091D7
:102D50000501909106010E94DD18609303017093B4
:102D600004018093050190930601D5CF8EED91E08B
:102D70000E94E80D882379F280910101909102016F
:102D800001979093020180930101C5CF80910701C3
:102D9000909108018C179D078CF00E949F0360930F
:102DA000FD017093FE018093FF01909300020E9449
:102DB0008A090E94370A64EE71E014CE459709F043
:102DC00015CEC231D10564F0409203015092040146
:102DD00060920501709206011093020100930101B7
:102DE00064970CF403CE4092030150920401609268
:102DF0000501709206013092020120920101F6CD88
:102E00008091DD029091DE02009711F00C94051B79
:102E100008950E944B1708F481E00895E89409C0D2
:102E200097FB3EF490958095709561957F4F8F4FFD
:102E30009F4F9923A9F0F92F96E9BB279395F69513
:102E4000879577956795B795F111F8CFFAF4BB0F91
:102E500011F460FF1BC06F5F7F4F8F4F9F4F16C0F5
:102E6000882311F096E911C0772321F09EE8872F7F
:102E7000762F05C0662371F096E8862F70E060E03B
:102E80002AF09A95660F771F881FDAF7880F9695B4
:102E9000879597F90895990F0008550FAA0BE0E858
:102EA000FEEF16161706E807F907C0F0121613060C
:102EB000E407F50798F0621B730B840B950B39F44C
:102EC0000A2661F0232B242B252B21F408950A26B2
:102ED00009F4A140A6958FEF811D811D08950E94E0
:102EE00082170C94F3170E94E51738F00E94EC1734
:102EF00020F0952311F00C94DC170C94E2171124A8
:102F00000C9427180E94041870F3959FC1F3950F35
:102F100050E0551F629FF001729FBB27F00DB11D5D
:102F2000639FAA27F00DB11DAA1F649F6627B00DED
:102F3000A11D661F829F2227B00DA11D621F739FD6
:102F4000B00DA11D621F839FA00D611D221F749FE4
:102F50003327A00D611D231F849F600D211D822F2B
:102F6000762F6A2F11249F5750409AF0F1F0882352
:102F70004AF0EE0FFF1FBB1F661F771F881F91507F
:102F80005040A9F79E3F510580F00C94DC170C943B
:102F900027185F3FE4F3983ED4F3869577956795BD
:102FA000B795F795E7959F5FC1F7FE2B880F911DA9
:102FB0009695879597F9089597F99F6780E870E04F
:102FC00060E008959FEF80EC089500240A9416169F
:102FD000170618060906089500240A941216130607
:102FE000140605060895092E0394000C11F4882395
:102FF00052F0BB0F40F4BF2B11F460FF04C06F5FB1
:103000007F4F8F4F9F4F089557FD9058440F551F86
:1030100059F05F3F71F04795880F97FB991F61F05A
:103020009F3F79F087950895121613061406551FD1
:10303000F2CF4695F1DF08C0161617061806991F3D
:10304000F1CF86957105610508940895E894BB2732
:1030500066277727CB0197F90895F999FECF92BD9E
:1030600081BDF89A992780B50895262FF999FECF4A
:103070001FBA92BD81BD20BD0FB6F894FA9AF99A95
:103080000FBE01960895052E97FB1EF400940E9432
:103090005A1857FD07D00E94AC1807FC03D04EF415
:1030A0000C945A1850954095309521953F4F4F4FAD
:1030B0005F4F089590958095709561957F4F8F4FE4
:1030C0009F4F08950E94CE18A59F900DB49F900D1C
:1030D000A49F800D911D11240895B7FF0C946218D0
:1030E0000E946218821B930B08952F923F924F9279
:1030F0005F926F927F928F929F92AF92BF92CF9288
:10310000DF92EF92FF920F931F93CF93DF93CDB790
:10311000DEB7CA1BDB0B0FB6F894DEBF0FBECDBF08
:1031200009942A88398848885F846E847D848C84D9
:103130009B84AA84B984C884DF80EE80FD800C81E2
:103140001B81AA81B981CE0FD11D0FB6F894DEBFC5
:103150000FBECDBFED010895A1E21A2EAA1BBB1B25
:10316000FD010DC0AA1FBB1FEE1FFF1FA217B30753
:10317000E407F50720F0A21BB30BE40BF50B661F69
:10318000771F881F991F1A9469F76095709580952D
:1031900090959B01AC01BD01CF010895A29FB001A4
:1031A000B39FC001A39F700D811D1124911DB29F7B
:1031B000700D811D1124911D08955058BB27AA2719
:1031C0000E94F5180C94F3170E94E51738F00E943E
:1031D000EC1720F039F49F3F19F426F40C94E21711
:1031E0000EF4E095E7FB0C94DC17E92F0E9404181D
:1031F00058F3BA17620773078407950720F079F42C
:10320000A6F50C9426180EF4E0950B2EBA2FA02DDF
:103210000B01B90190010C01CA01A0011124FF2783
:10322000591B99F0593F50F4503E68F11A16F0407E
:10323000A22F232F342F4427585FF3CF469537957D
:103240002795A795F0405395C9F77EF41F16BA0B42
:10325000620B730B840BBAF09150A1F0FF0FBB1FF0
:10326000661F771F881FC2F70EC0BA0F621F731F39
:10327000841F48F4879577956795B795F7959E3F96
:1032800008F0B0CF9395880F08F09927EE0F979527
:10329000879508950E945E190C94F3170E94EC170D
:1032A00058F00E94E51740F029F45F3F29F00C9494
:1032B000DC1751110C9427180C94E2170E94041883
:1032C00068F39923B1F3552391F3951B550BBB2755
:1032D000AA2762177307840738F09F5F5F4F220F9A
:1032E000331F441FAA1FA9F335D00E2E3AF0E0E891
:1032F00032D091505040E695001CCAF72BD0FE2FDB
:1033000029D0660F771F881FBB1F2617370748076E
:10331000AB07B0E809F0BB0B802DBF01FF27935826
:103320005F4F3AF09E3F510578F00C94DC170C94F7
:1033300027185F3FE4F3983ED4F386957795679519
:10334000B795F7959F5FC9F7880F911D969587955B
:1033500097F90895E1E0660F771F881FBB1F62177A
:1033600073078407BA0720F0621B730B840BBA0B38
:10337000EE1F88F7E09508950E94C3196894B11173
:103380000C94271808950E940C1888F09F5798F005
:10339000B92F9927B751B0F0E1F0660F771F881F5A
:1033A000991F1AF0BA95C9F714C0B13091F00E9474
:1033B0002618B1E008950C942618672F782F8827D7
:1033C000B85F39F0B93FCCF3869577956795B3959B
:1033D000D9F73EF490958095709561957F4F8F4F0A
:1033E0009F4F08950E944B1708F48FEF089519F42A
:1033F00016F40C94E2170C94421A0E940C18B8F3BD
:103400009923C9F3B6F39F57550B87FF0E94501AB3
:103410000024A0E640EA900180585695979528F43C
:10342000805C660F771F881F20F026173707480734
:1034300030F4621B730B840B202931294A2BA6958B
:1034400017940794202531254A2758F7660F771FD0
:10345000881F20F026173707480730F4620B730BDC
:10346000840B200D311D411DA09581F7B901842FDA
:103470009158880F9695879508950E944B17880B51
:10348000990B08959F3F31F0915020F487957795DF
:103490006795B795880F911D9695879597F908952B
:1034A00091505040660F771F881FD2F70895991BDF
:1034B00079E004C0991F961708F0961B881F7A952B
:1034C000C9F780950895EE0FFF1F0590F491E02D48
:1034D00009940F931F93CF93DF938230910510F4DB
:1034E00082E090E0E0915703F091580330E020E053
:1034F000B0E0A0E0309799F42115310509F44AC0F5
:10350000281B390B24303105D8F58A819B81611540
:10351000710589F1FB0193838283FE0111C0408113
:1035200051810281138148175907E0F04817590764
:1035300099F4109761F012960C93129713961C93BE
:103540003296CF01DF91CF911F910F910895009393
:10355000570310935803F4CF2115310551F042174A
:10356000530738F0A901DB019A01BD01DF01F80121
:10357000C1CFEF01F9CF9093580380935703CDCF7C
:10358000FE01E20FF31F8193919322503109398399
:103590002883D7CF2091550330915603232B41F434
:1035A00020910C0130910D01309356032093550367
:1035B00020910A0130910B012115310541F42DB7FD
:1035C0003EB740910E0150910F01241B350BE09145
:1035D0005503F0915603E217F307A0F42E1B3F0B9F
:1035E0002817390778F0AC014E5F5F4F2417350775
:1035F00048F04E0F5F1F509356034093550381933D
:1036000091939FCFF0E0E0E09CCFCF93DF930097C2
:10361000E9F0FC01329713821282A0915703B09116
:103620005803ED0130E020E01097A1F420813181B2
:10363000820F931F209155033091560328173907A5
:1036400009F061C0F0935603E0935503DF91CF91E9
:103650000895EA01CE17DF07E8F54A815B819E01F4
:1036600041155105B1F7E901FB83EA83499159916D
:10367000C40FD51FEC17FD0761F48081918102967C
:10368000840F951FE90199838883828193819B83AD
:103690008A83F0E0E0E012968D919C911397009759
:1036A000B9F52D913C911197CD010296820F931F90
:1036B00020915503309156032817390739F6309772
:1036C00051F51092580310925703B0935603A093EC
:1036D0005503BCCFD383C28340815181840F951F92
:1036E000C817D90761F44E5F5F4F88819981480FF1
:1036F000591F518340838A819B8193838283211543
:10370000310509F0B0CFF0935803E09357039ECFF3
:10371000FD01DC01C0CF13821282D7CFB0E0A0E060
:10372000E4E9FBE10C9477188C01009751F4CB018C
:103730000E94691A8C01C801CDB7DEB7E0E10C9494
:103740009318FC01E60FF71F9C0122503109E21784
:10375000F30708F49DC0D901CD91DC911197C617EC
:10376000D70798F0C530D10530F3CE0104978617FE
:10377000970708F3C61BD70B2297C193D1936D937C
:103780007C93CF010E94051BD6CF5B01AC1ABD0A0A
:103790004C018C0E9D1EA0915703B0915803512CE3
:1037A000412CF12CE12C109731F58091550390912B
:1037B00056038815990509F05CC04616570608F0AF
:1037C00058C080910A0190910B01009741F48DB788
:1037D0009EB740910E0150910F01841B950BE81785
:1037E000F90708F055C0F0935603E0935503F9012B
:1037F00071836083A0CF8D919C91119712966C90EC
:10380000129713967C901397A815B90559F56C017A
:1038100042E0C40ED11CCA14DB0420F1AC014A19E9
:103820005B09DA011296159780F0628273825183E8
:103830004083D9016D937C93E114F10471F0D701B9
:103840001396FC93EE93129776CF22968C0F9D1FC2
:10385000F90191838083F301EFCFF0935803E09354
:10386000570369CF4816590608F42C017D01D3018E
:103870009ACFCB010E94691A7C01009749F0AE01F2
:10388000B8010E944B1CC8010E94051B870153CF41
:1038900010E000E050CFFB01DC0102C001900D926E
:1038A00041505040D8F70895FB01DC018D91019003
:1038B00080190110D9F3990B0895FB01DC010190E7
:1038C0000D920020E1F7089510E0C3E6D0E004C0B7
:1038D000FE010E94631A2196C436D107C9F7F894F5
:0238E000FFCF18
:1038E200013400333317421500FF000059038000F2
:1038F200000000007D05DD040A05CA053B05190527
:103902002D05000000002206EE058909F10C0108D0
:103912008307C1076D073B071A07E606C5066F0650
:10392200400600000000E00ADD04EB05EA056E61D6
:103932006E00696E66006F766600446179733A20A4
:10394200002F005453503A20002043200048535087
:103952003A2000202500446179004661696C656463
:1039620020746F20726561642066726F6D20444816
:10397200542073656E736F7221000D0A0053656ED9
:10398200736F72204572726F72210054656D70659B
:103992007261747572653A200020C2B0432C2048CF
:1039A200756D69646974793A200054656D703A20C6
:1039B2000048756D69643A200054656D7000487561
:1039C2006D6964006461797320636F6D706C6574F6
:0439D2006564000028
:00000001FF
